{"contracts/ConfidentialPropertyValuation.sol":{"ConfidentialPropertyValuation":{"abi":[{"inputs":[],"stateMutability":"nonpayable","type":"constructor"},{"anonymous":false,"inputs":[{"indexed":true,"internalType":"uint256","name":"propertyId","type":"uint256"},{"indexed":true,"internalType":"address","name":"owner","type":"address"}],"name":"PropertyRegistered","type":"event"},{"anonymous":false,"inputs":[{"indexed":true,"internalType":"uint256","name":"valuationId","type":"uint256"},{"indexed":true,"internalType":"uint256","name":"propertyId","type":"uint256"},{"indexed":true,"internalType":"address","name":"valuator","type":"address"}],"name":"ValuationSubmitted","type":"event"},{"anonymous":false,"inputs":[{"indexed":true,"internalType":"address","name":"valuator","type":"address"}],"name":"ValuatorAuthorized","type":"event"},{"anonymous":false,"inputs":[{"indexed":true,"internalType":"address","name":"valuator","type":"address"}],"name":"ValuatorRevoked","type":"event"},{"inputs":[{"internalType":"address","name":"valuator","type":"address"}],"name":"authorizeValuator","outputs":[],"stateMutability":"nonpayable","type":"function"},{"inputs":[{"internalType":"address","name":"","type":"address"}],"name":"authorizedValuators","outputs":[{"internalType":"bool","name":"","type":"bool"}],"stateMutability":"view","type":"function"},{"inputs":[{"internalType":"uint256","name":"propertyId","type":"uint256"}],"name":"calculateAverageValuation","outputs":[{"internalType":"bool","name":"hasRevealed","type":"bool"},{"internalType":"uint64","name":"averageValue","type":"uint64"},{"internalType":"uint32","name":"averageConfidence","type":"uint32"},{"internalType":"uint256","name":"valuationCount","type":"uint256"}],"stateMutability":"view","type":"function"},{"inputs":[{"internalType":"address","name":"propertyOwner","type":"address"}],"name":"getOwnerProperties","outputs":[{"internalType":"uint256[]","name":"","type":"uint256[]"}],"stateMutability":"view","type":"function"},{"inputs":[],"name":"getPropertyCount","outputs":[{"internalType":"uint256","name":"","type":"uint256"}],"stateMutability":"view","type":"function"},{"inputs":[],"name":"getValuationCount","outputs":[{"internalType":"uint256","name":"","type":"uint256"}],"stateMutability":"view","type":"function"},{"inputs":[],"name":"owner","outputs":[{"internalType":"address","name":"","type":"address"}],"stateMutability":"view","type":"function"},{"inputs":[{"internalType":"uint256","name":"","type":"uint256"}],"name":"properties","outputs":[{"internalType":"uint256","name":"id","type":"uint256"},{"internalType":"address","name":"owner","type":"address"},{"internalType":"uint32","name":"area","type":"uint32"},{"internalType":"uint32","name":"bedrooms","type":"uint32"},{"internalType":"uint32","name":"bathrooms","type":"uint32"},{"internalType":"uint32","name":"yearBuilt","type":"uint32"},{"internalType":"uint32","name":"floorLevel","type":"uint32"},{"internalType":"uint32","name":"locationScore","type":"uint32"},{"internalType":"bool","name":"active","type":"bool"}],"stateMutability":"view","type":"function"},{"inputs":[{"internalType":"uint32","name":"_area","type":"uint32"},{"internalType":"uint32","name":"_bedrooms","type":"uint32"},{"internalType":"uint32","name":"_bathrooms","type":"uint32"},{"internalType":"uint32","name":"_yearBuilt","type":"uint32"},{"internalType":"uint32","name":"_floorLevel","type":"uint32"},{"internalType":"uint32","name":"_locationScore","type":"uint32"}],"name":"registerProperty","outputs":[{"internalType":"uint256","name":"","type":"uint256"}],"stateMutability":"nonpayable","type":"function"},{"inputs":[{"internalType":"address","name":"valuator","type":"address"}],"name":"revokeValuator","outputs":[],"stateMutability":"nonpayable","type":"function"},{"inputs":[{"internalType":"uint256","name":"propertyId","type":"uint256"},{"internalType":"uint64","name":"_estimatedValue","type":"uint64"},{"internalType":"uint32","name":"_confidenceScore","type":"uint32"}],"name":"submitValuation","outputs":[{"internalType":"uint256","name":"","type":"uint256"}],"stateMutability":"nonpayable","type":"function"},{"inputs":[{"internalType":"uint256","name":"","type":"uint256"}],"name":"valuations","outputs":[{"internalType":"uint256","name":"id","type":"uint256"},{"internalType":"uint256","name":"propertyId","type":"uint256"},{"internalType":"address","name":"valuator","type":"address"},{"internalType":"uint64","name":"estimatedValue","type":"uint64"},{"internalType":"uint32","name":"confidenceScore","type":"uint32"},{"internalType":"uint256","name":"timestamp","type":"uint256"}],"stateMutability":"view","type":"function"}],"devdoc":{"details":"Implements encrypted property registration and valuation with access control","kind":"dev","methods":{"authorizeValuator(address)":{"params":{"valuator":"Address to authorize"}},"calculateAverageValuation(uint256)":{"params":{"propertyId":"The property ID"},"returns":{"averageConfidence":"Average confidence score","averageValue":"Average estimated value","hasRevealed":"Whether valuations exist","valuationCount":"Number of valuations"}},"getOwnerProperties(address)":{"params":{"propertyOwner":"The owner's address"},"returns":{"_0":"Array of property IDs"}},"getPropertyCount()":{"returns":{"_0":"Total property count"}},"getValuationCount()":{"returns":{"_0":"Total valuation count"}},"registerProperty(uint32,uint32,uint32,uint32,uint32,uint32)":{"params":{"_area":"Property area in square meters","_bathrooms":"Number of bathrooms","_bedrooms":"Number of bedrooms","_floorLevel":"Floor level","_locationScore":"Location quality score (1-100)","_yearBuilt":"Year the property was built"},"returns":{"_0":"propertyId The ID of the newly registered property"}},"revokeValuator(address)":{"params":{"valuator":"Address to revoke"}},"submitValuation(uint256,uint64,uint32)":{"params":{"_confidenceScore":"Confidence score (1-100)","_estimatedValue":"Estimated value in USD","propertyId":"The ID of the property to value"},"returns":{"_0":"valuationId The ID of the newly created valuation"}}},"title":"Confidential Property Valuation System","version":1},"evm":{"bytecode":{"linkReferences":{},"object":"608060405234801561000f575f80fd5b505f80546001600160a01b031916331781556001819055600255611026806100365f395ff3fe608060405234801561000f575f80fd5b50600436106100cf575f3560e01c80638da5cb5b1161007d578063e73b171f11610058578063e73b171f14610289578063f7b108081461029c578063fcc0d95914610399575f80fd5b80638da5cb5b1461022a578063ca47a9f414610254578063cb64489714610269575f80fd5b806366023f6c116100ad57806366023f6c146101dd5780637326b9011461020f57806374c5976c14610217575f80fd5b806329c041e5146100d3578063506520e8146101215780635d03d83e14610133575b5f80fd5b6100e66100e1366004610e22565b6103ac565b60408051941515855267ffffffffffffffff909316602085015263ffffffff9091169183019190915260608201526080015b60405180910390f35b6002545b604051908152602001610118565b610193610141366004610e22565b60046020525f90815260409020805460018201546002830154600390930154919290916001600160a01b03821691600160a01b810467ffffffffffffffff1691600160e01b90910463ffffffff169086565b6040805196875260208701959095526001600160a01b039093169385019390935267ffffffffffffffff16606084015263ffffffff909116608083015260a082015260c001610118565b6101ff6101eb366004610e39565b60056020525f908152604090205460ff1681565b6040519015158152602001610118565b600154610125565b610125610225366004610e7e565b610526565b5f5461023c906001600160a01b031681565b6040516001600160a01b039091168152602001610118565b610267610262366004610e39565b61084e565b005b61027c610277366004610e39565b6109ba565b6040516101189190610eee565b610267610297366004610e39565b610a23565b61033e6102aa366004610e22565b60036020525f908152604090208054600182015460029092015490916001600160a01b0381169163ffffffff600160a01b830481169278010000000000000000000000000000000000000000000000008104821692600160e01b909104821691818116916401000000008104821691680100000000000000008204169060ff6c010000000000000000000000009091041689565b60408051998a526001600160a01b0390981660208a015263ffffffff9687169789019790975293851660608801529184166080870152831660a0860152821660c08501521660e0830152151561010082015261012001610118565b6101256103a7366004610f31565b610b35565b5f805f805f60075f8781526020019081526020015f2080548060200260200160405190810160405280929190818152602001828054801561040a57602002820191905f5260205f20905b8154815260200190600101908083116103f6575b5050505050905080519150815f0361042e575f805f8094509450945094505061051f565b5f805f5b848110156104fe575f60045f86848151811061045057610450610f78565b60209081029190910181015182528181019290925260409081015f20815160c0810183528154815260018201549381019390935260028101546001600160a01b03811692840192909252600160a01b820467ffffffffffffffff1660608401819052600160e01b90920463ffffffff1660808401526003015460a08301529091506104db9085610fa0565b9350806080015163ffffffff16836104f39190610fa0565b925050600101610432565b506105098483610fb9565b95506105158482610fb9565b9450600196505050505b9193509193565b5f808763ffffffff16116105815760405162461bcd60e51b815260206004820152601e60248201527f41726561206d7573742062652067726561746572207468616e207a65726f000060448201526064015b60405180910390fd5b5f8263ffffffff1611801561059d575060648263ffffffff1611155b6105e95760405162461bcd60e51b815260206004820152601660248201527f496e76616c6964206c6f636174696f6e2073636f7265000000000000000000006044820152606401610578565b60018054905f6105f883610fd8565b91905055505f6001549050604051806101200160405280828152602001336001600160a01b031681526020018963ffffffff1681526020018863ffffffff1681526020018763ffffffff1681526020018663ffffffff1681526020018563ffffffff1681526020018463ffffffff1681526020016001151581525060035f8381526020019081526020015f205f820151815f01556020820151816001015f6101000a8154816001600160a01b0302191690836001600160a01b0316021790555060408201518160010160146101000a81548163ffffffff021916908363ffffffff16021790555060608201518160010160186101000a81548163ffffffff021916908363ffffffff160217905550608082015181600101601c6101000a81548163ffffffff021916908363ffffffff16021790555060a0820151816002015f6101000a81548163ffffffff021916908363ffffffff16021790555060c08201518160020160046101000a81548163ffffffff021916908363ffffffff16021790555060e08201518160020160086101000a81548163ffffffff021916908363ffffffff16021790555061010082015181600201600c6101000a81548160ff02191690831515021790555090505060065f336001600160a01b03166001600160a01b031681526020019081526020015f2081908060018154018082558091505060019003905f5260205f20015f9091909190915055336001600160a01b0316817ff16e2a0ca5373d3b3c5e53640bf2953ea25184f229ba20d421b5fc6a635e394560405160405180910390a3979650505050505050565b5f546001600160a01b031633146108b15760405162461bcd60e51b815260206004820152602160248201527f4f6e6c79206f776e65722063616e2063616c6c20746869732066756e6374696f6044820152603760f91b6064820152608401610578565b6001600160a01b0381166109075760405162461bcd60e51b815260206004820152600f60248201527f496e76616c6964206164647265737300000000000000000000000000000000006044820152606401610578565b6001600160a01b0381165f9081526005602052604090205460ff161561096f5760405162461bcd60e51b815260206004820152601260248201527f416c726561647920617574686f72697a656400000000000000000000000000006044820152606401610578565b6001600160a01b0381165f81815260056020526040808220805460ff19166001179055517f3154b4784b7a606a4e8594e5c2aade1d60c2c2295f43c84e114d3c8bd30a3b089190a250565b6001600160a01b0381165f90815260066020908152604091829020805483518184028101840190945280845260609392830182828015610a1757602002820191905f5260205f20905b815481526020019060010190808311610a03575b50505050509050919050565b5f546001600160a01b03163314610a865760405162461bcd60e51b815260206004820152602160248201527f4f6e6c79206f776e65722063616e2063616c6c20746869732066756e6374696f6044820152603760f91b6064820152608401610578565b6001600160a01b0381165f9081526005602052604090205460ff16610aed5760405162461bcd60e51b815260206004820152600e60248201527f4e6f7420617574686f72697a65640000000000000000000000000000000000006044820152606401610578565b6001600160a01b0381165f81815260056020526040808220805460ff19169055517f825a89863a561066b5720d4aa7eb8a4db0ecc454d5febe7e9066ab8f9c1e88139190a250565b335f9081526005602052604081205460ff16610b935760405162461bcd60e51b815260206004820152601760248201527f4e6f7420617574686f72697a65642076616c7561746f720000000000000000006044820152606401610578565b5f848152600360205260409020600201546c01000000000000000000000000900460ff16610c035760405162461bcd60e51b815260206004820152601360248201527f50726f7065727479206e6f7420616374697665000000000000000000000000006044820152606401610578565b5f8367ffffffffffffffff1611610c685760405162461bcd60e51b815260206004820152602360248201527f56616c756174696f6e206d7573742062652067726561746572207468616e207a60448201526265726f60e81b6064820152608401610578565b5f8263ffffffff16118015610c84575060648263ffffffff1611155b610cd05760405162461bcd60e51b815260206004820152601860248201527f496e76616c696420636f6e666964656e63652073636f726500000000000000006044820152606401610578565b60028054905f610cdf83610fd8565b9091555050600280546040805160c08101825282815260208082018981523383850181815267ffffffffffffffff808c166060870190815263ffffffff808d16608089019081524260a08a019081525f8c815260048a528b81209a518b5597516001808c019190915595519c8a01805494519251909316600160e01b027bffffffffffffffffffffffffffffffffffffffffffffffffffffffff92909516600160a01b027fffffffff000000000000000000000000000000000000000000000000000000009094166001600160a01b039d909d169c909c179290921791909116919091179055965160039094019390935589815260078252838120805496870181558152908120909401839055905191929091879184917fd5353fa3ef94edce12f242792ba11c2031e4c4609965b830a9d193437b63f3429190a4949350505050565b5f60208284031215610e32575f80fd5b5035919050565b5f60208284031215610e49575f80fd5b81356001600160a01b0381168114610e5f575f80fd5b9392505050565b803563ffffffff81168114610e79575f80fd5b919050565b5f805f805f8060c08789031215610e93575f80fd5b610e9c87610e66565b9550610eaa60208801610e66565b9450610eb860408801610e66565b9350610ec660608801610e66565b9250610ed460808801610e66565b9150610ee260a08801610e66565b90509295509295509295565b602080825282518282018190525f9190848201906040850190845b81811015610f2557835183529284019291840191600101610f09565b50909695505050505050565b5f805f60608486031215610f43575f80fd5b83359250602084013567ffffffffffffffff81168114610f61575f80fd5b9150610f6f60408501610e66565b90509250925092565b634e487b7160e01b5f52603260045260245ffd5b634e487b7160e01b5f52601160045260245ffd5b80820180821115610fb357610fb3610f8c565b92915050565b5f82610fd357634e487b7160e01b5f52601260045260245ffd5b500490565b5f60018201610fe957610fe9610f8c565b506001019056fea264697066735822122070da35c72f6d3bc3dc5268fca85724105a76bed459633de0eadd25cc220add4c64736f6c63430008180033","opcodes":"PUSH1 0x80 PUSH1 0x40 MSTORE CALLVALUE DUP1 ISZERO PUSH2 0xF JUMPI PUSH0 DUP1 REVERT JUMPDEST POP PUSH0 DUP1 SLOAD PUSH1 0x1 PUSH1 0x1 PUSH1 0xA0 SHL SUB NOT AND CALLER OR DUP2 SSTORE PUSH1 0x1 DUP2 SWAP1 SSTORE PUSH1 0x2 SSTORE PUSH2 0x1026 DUP1 PUSH2 0x36 PUSH0 CODECOPY PUSH0 RETURN INVALID PUSH1 0x80 PUSH1 0x40 MSTORE CALLVALUE DUP1 ISZERO PUSH2 0xF JUMPI PUSH0 DUP1 REVERT JUMPDEST POP PUSH1 0x4 CALLDATASIZE LT PUSH2 0xCF JUMPI PUSH0 CALLDATALOAD PUSH1 0xE0 SHR DUP1 PUSH4 0x8DA5CB5B GT PUSH2 0x7D JUMPI DUP1 PUSH4 0xE73B171F GT PUSH2 0x58 JUMPI DUP1 PUSH4 0xE73B171F EQ PUSH2 0x289 JUMPI DUP1 PUSH4 0xF7B10808 EQ PUSH2 0x29C JUMPI DUP1 PUSH4 0xFCC0D959 EQ PUSH2 0x399 JUMPI PUSH0 DUP1 REVERT JUMPDEST DUP1 PUSH4 0x8DA5CB5B EQ PUSH2 0x22A JUMPI DUP1 PUSH4 0xCA47A9F4 EQ PUSH2 0x254 JUMPI DUP1 PUSH4 0xCB644897 EQ PUSH2 0x269 JUMPI PUSH0 DUP1 REVERT JUMPDEST DUP1 PUSH4 0x66023F6C GT PUSH2 0xAD JUMPI DUP1 PUSH4 0x66023F6C EQ PUSH2 0x1DD JUMPI DUP1 PUSH4 0x7326B901 EQ PUSH2 0x20F JUMPI DUP1 PUSH4 0x74C5976C EQ PUSH2 0x217 JUMPI PUSH0 DUP1 REVERT JUMPDEST DUP1 PUSH4 0x29C041E5 EQ PUSH2 0xD3 JUMPI DUP1 PUSH4 0x506520E8 EQ PUSH2 0x121 JUMPI DUP1 PUSH4 0x5D03D83E EQ PUSH2 0x133 JUMPI JUMPDEST PUSH0 DUP1 REVERT JUMPDEST PUSH2 0xE6 PUSH2 0xE1 CALLDATASIZE PUSH1 0x4 PUSH2 0xE22 JUMP JUMPDEST PUSH2 0x3AC JUMP JUMPDEST PUSH1 0x40 DUP1 MLOAD SWAP5 ISZERO ISZERO DUP6 MSTORE PUSH8 0xFFFFFFFFFFFFFFFF SWAP1 SWAP4 AND PUSH1 0x20 DUP6 ADD MSTORE PUSH4 0xFFFFFFFF SWAP1 SWAP2 AND SWAP2 DUP4 ADD SWAP2 SWAP1 SWAP2 MSTORE PUSH1 0x60 DUP3 ADD MSTORE PUSH1 0x80 ADD JUMPDEST PUSH1 0x40 MLOAD DUP1 SWAP2 SUB SWAP1 RETURN JUMPDEST PUSH1 0x2 SLOAD JUMPDEST PUSH1 0x40 MLOAD SWAP1 DUP2 MSTORE PUSH1 0x20 ADD PUSH2 0x118 JUMP JUMPDEST PUSH2 0x193 PUSH2 0x141 CALLDATASIZE PUSH1 0x4 PUSH2 0xE22 JUMP JUMPDEST PUSH1 0x4 PUSH1 0x20 MSTORE PUSH0 SWAP1 DUP2 MSTORE PUSH1 0x40 SWAP1 KECCAK256 DUP1 SLOAD PUSH1 0x1 DUP3 ADD SLOAD PUSH1 0x2 DUP4 ADD SLOAD PUSH1 0x3 SWAP1 SWAP4 ADD SLOAD SWAP2 SWAP3 SWAP1 SWAP2 PUSH1 0x1 PUSH1 0x1 PUSH1 0xA0 SHL SUB DUP3 AND SWAP2 PUSH1 0x1 PUSH1 0xA0 SHL DUP2 DIV PUSH8 0xFFFFFFFFFFFFFFFF AND SWAP2 PUSH1 0x1 PUSH1 0xE0 SHL SWAP1 SWAP2 DIV PUSH4 0xFFFFFFFF AND SWAP1 DUP7 JUMP JUMPDEST PUSH1 0x40 DUP1 MLOAD SWAP7 DUP8 MSTORE PUSH1 0x20 DUP8 ADD SWAP6 SWAP1 SWAP6 MSTORE PUSH1 0x1 PUSH1 0x1 PUSH1 0xA0 SHL SUB SWAP1 SWAP4 AND SWAP4 DUP6 ADD SWAP4 SWAP1 SWAP4 MSTORE PUSH8 0xFFFFFFFFFFFFFFFF AND PUSH1 0x60 DUP5 ADD MSTORE PUSH4 0xFFFFFFFF SWAP1 SWAP2 AND PUSH1 0x80 DUP4 ADD MSTORE PUSH1 0xA0 DUP3 ADD MSTORE PUSH1 0xC0 ADD PUSH2 0x118 JUMP JUMPDEST PUSH2 0x1FF PUSH2 0x1EB CALLDATASIZE PUSH1 0x4 PUSH2 0xE39 JUMP JUMPDEST PUSH1 0x5 PUSH1 0x20 MSTORE PUSH0 SWAP1 DUP2 MSTORE PUSH1 0x40 SWAP1 KECCAK256 SLOAD PUSH1 0xFF AND DUP2 JUMP JUMPDEST PUSH1 0x40 MLOAD SWAP1 ISZERO ISZERO DUP2 MSTORE PUSH1 0x20 ADD PUSH2 0x118 JUMP JUMPDEST PUSH1 0x1 SLOAD PUSH2 0x125 JUMP JUMPDEST PUSH2 0x125 PUSH2 0x225 CALLDATASIZE PUSH1 0x4 PUSH2 0xE7E JUMP JUMPDEST PUSH2 0x526 JUMP JUMPDEST PUSH0 SLOAD PUSH2 0x23C SWAP1 PUSH1 0x1 PUSH1 0x1 PUSH1 0xA0 SHL SUB AND DUP2 JUMP JUMPDEST PUSH1 0x40 MLOAD PUSH1 0x1 PUSH1 0x1 PUSH1 0xA0 SHL SUB SWAP1 SWAP2 AND DUP2 MSTORE PUSH1 0x20 ADD PUSH2 0x118 JUMP JUMPDEST PUSH2 0x267 PUSH2 0x262 CALLDATASIZE PUSH1 0x4 PUSH2 0xE39 JUMP JUMPDEST PUSH2 0x84E JUMP JUMPDEST STOP JUMPDEST PUSH2 0x27C PUSH2 0x277 CALLDATASIZE PUSH1 0x4 PUSH2 0xE39 JUMP JUMPDEST PUSH2 0x9BA JUMP JUMPDEST PUSH1 0x40 MLOAD PUSH2 0x118 SWAP2 SWAP1 PUSH2 0xEEE JUMP JUMPDEST PUSH2 0x267 PUSH2 0x297 CALLDATASIZE PUSH1 0x4 PUSH2 0xE39 JUMP JUMPDEST PUSH2 0xA23 JUMP JUMPDEST PUSH2 0x33E PUSH2 0x2AA CALLDATASIZE PUSH1 0x4 PUSH2 0xE22 JUMP JUMPDEST PUSH1 0x3 PUSH1 0x20 MSTORE PUSH0 SWAP1 DUP2 MSTORE PUSH1 0x40 SWAP1 KECCAK256 DUP1 SLOAD PUSH1 0x1 DUP3 ADD SLOAD PUSH1 0x2 SWAP1 SWAP3 ADD SLOAD SWAP1 SWAP2 PUSH1 0x1 PUSH1 0x1 PUSH1 0xA0 SHL SUB DUP2 AND SWAP2 PUSH4 0xFFFFFFFF PUSH1 0x1 PUSH1 0xA0 SHL DUP4 DIV DUP2 AND SWAP3 PUSH25 0x1000000000000000000000000000000000000000000000000 DUP2 DIV DUP3 AND SWAP3 PUSH1 0x1 PUSH1 0xE0 SHL SWAP1 SWAP2 DIV DUP3 AND SWAP2 DUP2 DUP2 AND SWAP2 PUSH5 0x100000000 DUP2 DIV DUP3 AND SWAP2 PUSH9 0x10000000000000000 DUP3 DIV AND SWAP1 PUSH1 0xFF PUSH13 0x1000000000000000000000000 SWAP1 SWAP2 DIV AND DUP10 JUMP JUMPDEST PUSH1 0x40 DUP1 MLOAD SWAP10 DUP11 MSTORE PUSH1 0x1 PUSH1 0x1 PUSH1 0xA0 SHL SUB SWAP1 SWAP9 AND PUSH1 0x20 DUP11 ADD MSTORE PUSH4 0xFFFFFFFF SWAP7 DUP8 AND SWAP8 DUP10 ADD SWAP8 SWAP1 SWAP8 MSTORE SWAP4 DUP6 AND PUSH1 0x60 DUP9 ADD MSTORE SWAP2 DUP5 AND PUSH1 0x80 DUP8 ADD MSTORE DUP4 AND PUSH1 0xA0 DUP7 ADD MSTORE DUP3 AND PUSH1 0xC0 DUP6 ADD MSTORE AND PUSH1 0xE0 DUP4 ADD MSTORE ISZERO ISZERO PUSH2 0x100 DUP3 ADD MSTORE PUSH2 0x120 ADD PUSH2 0x118 JUMP JUMPDEST PUSH2 0x125 PUSH2 0x3A7 CALLDATASIZE PUSH1 0x4 PUSH2 0xF31 JUMP JUMPDEST PUSH2 0xB35 JUMP JUMPDEST PUSH0 DUP1 PUSH0 DUP1 PUSH0 PUSH1 0x7 PUSH0 DUP8 DUP2 MSTORE PUSH1 0x20 ADD SWAP1 DUP2 MSTORE PUSH1 0x20 ADD PUSH0 KECCAK256 DUP1 SLOAD DUP1 PUSH1 0x20 MUL PUSH1 0x20 ADD PUSH1 0x40 MLOAD SWAP1 DUP2 ADD PUSH1 0x40 MSTORE DUP1 SWAP3 SWAP2 SWAP1 DUP2 DUP2 MSTORE PUSH1 0x20 ADD DUP3 DUP1 SLOAD DUP1 ISZERO PUSH2 0x40A JUMPI PUSH1 0x20 MUL DUP3 ADD SWAP2 SWAP1 PUSH0 MSTORE PUSH1 0x20 PUSH0 KECCAK256 SWAP1 JUMPDEST DUP2 SLOAD DUP2 MSTORE PUSH1 0x20 ADD SWAP1 PUSH1 0x1 ADD SWAP1 DUP1 DUP4 GT PUSH2 0x3F6 JUMPI JUMPDEST POP POP POP POP POP SWAP1 POP DUP1 MLOAD SWAP2 POP DUP2 PUSH0 SUB PUSH2 0x42E JUMPI PUSH0 DUP1 PUSH0 DUP1 SWAP5 POP SWAP5 POP SWAP5 POP SWAP5 POP POP PUSH2 0x51F JUMP JUMPDEST PUSH0 DUP1 PUSH0 JUMPDEST DUP5 DUP2 LT ISZERO PUSH2 0x4FE JUMPI PUSH0 PUSH1 0x4 PUSH0 DUP7 DUP5 DUP2 MLOAD DUP2 LT PUSH2 0x450 JUMPI PUSH2 0x450 PUSH2 0xF78 JUMP JUMPDEST PUSH1 0x20 SWAP1 DUP2 MUL SWAP2 SWAP1 SWAP2 ADD DUP2 ADD MLOAD DUP3 MSTORE DUP2 DUP2 ADD SWAP3 SWAP1 SWAP3 MSTORE PUSH1 0x40 SWAP1 DUP2 ADD PUSH0 KECCAK256 DUP2 MLOAD PUSH1 0xC0 DUP2 ADD DUP4 MSTORE DUP2 SLOAD DUP2 MSTORE PUSH1 0x1 DUP3 ADD SLOAD SWAP4 DUP2 ADD SWAP4 SWAP1 SWAP4 MSTORE PUSH1 0x2 DUP2 ADD SLOAD PUSH1 0x1 PUSH1 0x1 PUSH1 0xA0 SHL SUB DUP2 AND SWAP3 DUP5 ADD SWAP3 SWAP1 SWAP3 MSTORE PUSH1 0x1 PUSH1 0xA0 SHL DUP3 DIV PUSH8 0xFFFFFFFFFFFFFFFF AND PUSH1 0x60 DUP5 ADD DUP2 SWAP1 MSTORE PUSH1 0x1 PUSH1 0xE0 SHL SWAP1 SWAP3 DIV PUSH4 0xFFFFFFFF AND PUSH1 0x80 DUP5 ADD MSTORE PUSH1 0x3 ADD SLOAD PUSH1 0xA0 DUP4 ADD MSTORE SWAP1 SWAP2 POP PUSH2 0x4DB SWAP1 DUP6 PUSH2 0xFA0 JUMP JUMPDEST SWAP4 POP DUP1 PUSH1 0x80 ADD MLOAD PUSH4 0xFFFFFFFF AND DUP4 PUSH2 0x4F3 SWAP2 SWAP1 PUSH2 0xFA0 JUMP JUMPDEST SWAP3 POP POP PUSH1 0x1 ADD PUSH2 0x432 JUMP JUMPDEST POP PUSH2 0x509 DUP5 DUP4 PUSH2 0xFB9 JUMP JUMPDEST SWAP6 POP PUSH2 0x515 DUP5 DUP3 PUSH2 0xFB9 JUMP JUMPDEST SWAP5 POP PUSH1 0x1 SWAP7 POP POP POP POP JUMPDEST SWAP2 SWAP4 POP SWAP2 SWAP4 JUMP JUMPDEST PUSH0 DUP1 DUP8 PUSH4 0xFFFFFFFF AND GT PUSH2 0x581 JUMPI PUSH1 0x40 MLOAD PUSH3 0x461BCD PUSH1 0xE5 SHL DUP2 MSTORE PUSH1 0x20 PUSH1 0x4 DUP3 ADD MSTORE PUSH1 0x1E PUSH1 0x24 DUP3 ADD MSTORE PUSH32 0x41726561206D7573742062652067726561746572207468616E207A65726F0000 PUSH1 0x44 DUP3 ADD MSTORE PUSH1 0x64 ADD JUMPDEST PUSH1 0x40 MLOAD DUP1 SWAP2 SUB SWAP1 REVERT JUMPDEST PUSH0 DUP3 PUSH4 0xFFFFFFFF AND GT DUP1 ISZERO PUSH2 0x59D JUMPI POP PUSH1 0x64 DUP3 PUSH4 0xFFFFFFFF AND GT ISZERO JUMPDEST PUSH2 0x5E9 JUMPI PUSH1 0x40 MLOAD PUSH3 0x461BCD PUSH1 0xE5 SHL DUP2 MSTORE PUSH1 0x20 PUSH1 0x4 DUP3 ADD MSTORE PUSH1 0x16 PUSH1 0x24 DUP3 ADD MSTORE PUSH32 0x496E76616C6964206C6F636174696F6E2073636F726500000000000000000000 PUSH1 0x44 DUP3 ADD MSTORE PUSH1 0x64 ADD PUSH2 0x578 JUMP JUMPDEST PUSH1 0x1 DUP1 SLOAD SWAP1 PUSH0 PUSH2 0x5F8 DUP4 PUSH2 0xFD8 JUMP JUMPDEST SWAP2 SWAP1 POP SSTORE POP PUSH0 PUSH1 0x1 SLOAD SWAP1 POP PUSH1 0x40 MLOAD DUP1 PUSH2 0x120 ADD PUSH1 0x40 MSTORE DUP1 DUP3 DUP2 MSTORE PUSH1 0x20 ADD CALLER PUSH1 0x1 PUSH1 0x1 PUSH1 0xA0 SHL SUB AND DUP2 MSTORE PUSH1 0x20 ADD DUP10 PUSH4 0xFFFFFFFF AND DUP2 MSTORE PUSH1 0x20 ADD DUP9 PUSH4 0xFFFFFFFF AND DUP2 MSTORE PUSH1 0x20 ADD DUP8 PUSH4 0xFFFFFFFF AND DUP2 MSTORE PUSH1 0x20 ADD DUP7 PUSH4 0xFFFFFFFF AND DUP2 MSTORE PUSH1 0x20 ADD DUP6 PUSH4 0xFFFFFFFF AND DUP2 MSTORE PUSH1 0x20 ADD DUP5 PUSH4 0xFFFFFFFF AND DUP2 MSTORE PUSH1 0x20 ADD PUSH1 0x1 ISZERO ISZERO DUP2 MSTORE POP PUSH1 0x3 PUSH0 DUP4 DUP2 MSTORE PUSH1 0x20 ADD SWAP1 DUP2 MSTORE PUSH1 0x20 ADD PUSH0 KECCAK256 PUSH0 DUP3 ADD MLOAD DUP2 PUSH0 ADD SSTORE PUSH1 0x20 DUP3 ADD MLOAD DUP2 PUSH1 0x1 ADD PUSH0 PUSH2 0x100 EXP DUP2 SLOAD DUP2 PUSH1 0x1 PUSH1 0x1 PUSH1 0xA0 SHL SUB MUL NOT AND SWAP1 DUP4 PUSH1 0x1 PUSH1 0x1 PUSH1 0xA0 SHL SUB AND MUL OR SWAP1 SSTORE POP PUSH1 0x40 DUP3 ADD MLOAD DUP2 PUSH1 0x1 ADD PUSH1 0x14 PUSH2 0x100 EXP DUP2 SLOAD DUP2 PUSH4 0xFFFFFFFF MUL NOT AND SWAP1 DUP4 PUSH4 0xFFFFFFFF AND MUL OR SWAP1 SSTORE POP PUSH1 0x60 DUP3 ADD MLOAD DUP2 PUSH1 0x1 ADD PUSH1 0x18 PUSH2 0x100 EXP DUP2 SLOAD DUP2 PUSH4 0xFFFFFFFF MUL NOT AND SWAP1 DUP4 PUSH4 0xFFFFFFFF AND MUL OR SWAP1 SSTORE POP PUSH1 0x80 DUP3 ADD MLOAD DUP2 PUSH1 0x1 ADD PUSH1 0x1C PUSH2 0x100 EXP DUP2 SLOAD DUP2 PUSH4 0xFFFFFFFF MUL NOT AND SWAP1 DUP4 PUSH4 0xFFFFFFFF AND MUL OR SWAP1 SSTORE POP PUSH1 0xA0 DUP3 ADD MLOAD DUP2 PUSH1 0x2 ADD PUSH0 PUSH2 0x100 EXP DUP2 SLOAD DUP2 PUSH4 0xFFFFFFFF MUL NOT AND SWAP1 DUP4 PUSH4 0xFFFFFFFF AND MUL OR SWAP1 SSTORE POP PUSH1 0xC0 DUP3 ADD MLOAD DUP2 PUSH1 0x2 ADD PUSH1 0x4 PUSH2 0x100 EXP DUP2 SLOAD DUP2 PUSH4 0xFFFFFFFF MUL NOT AND SWAP1 DUP4 PUSH4 0xFFFFFFFF AND MUL OR SWAP1 SSTORE POP PUSH1 0xE0 DUP3 ADD MLOAD DUP2 PUSH1 0x2 ADD PUSH1 0x8 PUSH2 0x100 EXP DUP2 SLOAD DUP2 PUSH4 0xFFFFFFFF MUL NOT AND SWAP1 DUP4 PUSH4 0xFFFFFFFF AND MUL OR SWAP1 SSTORE POP PUSH2 0x100 DUP3 ADD MLOAD DUP2 PUSH1 0x2 ADD PUSH1 0xC PUSH2 0x100 EXP DUP2 SLOAD DUP2 PUSH1 0xFF MUL NOT AND SWAP1 DUP4 ISZERO ISZERO MUL OR SWAP1 SSTORE POP SWAP1 POP POP PUSH1 0x6 PUSH0 CALLER PUSH1 0x1 PUSH1 0x1 PUSH1 0xA0 SHL SUB AND PUSH1 0x1 PUSH1 0x1 PUSH1 0xA0 SHL SUB AND DUP2 MSTORE PUSH1 0x20 ADD SWAP1 DUP2 MSTORE PUSH1 0x20 ADD PUSH0 KECCAK256 DUP2 SWAP1 DUP1 PUSH1 0x1 DUP2 SLOAD ADD DUP1 DUP3 SSTORE DUP1 SWAP2 POP POP PUSH1 0x1 SWAP1 SUB SWAP1 PUSH0 MSTORE PUSH1 0x20 PUSH0 KECCAK256 ADD PUSH0 SWAP1 SWAP2 SWAP1 SWAP2 SWAP1 SWAP2 POP SSTORE CALLER PUSH1 0x1 PUSH1 0x1 PUSH1 0xA0 SHL SUB AND DUP2 PUSH32 0xF16E2A0CA5373D3B3C5E53640BF2953EA25184F229BA20D421B5FC6A635E3945 PUSH1 0x40 MLOAD PUSH1 0x40 MLOAD DUP1 SWAP2 SUB SWAP1 LOG3 SWAP8 SWAP7 POP POP POP POP POP POP POP JUMP JUMPDEST PUSH0 SLOAD PUSH1 0x1 PUSH1 0x1 PUSH1 0xA0 SHL SUB AND CALLER EQ PUSH2 0x8B1 JUMPI PUSH1 0x40 MLOAD PUSH3 0x461BCD PUSH1 0xE5 SHL DUP2 MSTORE PUSH1 0x20 PUSH1 0x4 DUP3 ADD MSTORE PUSH1 0x21 PUSH1 0x24 DUP3 ADD MSTORE PUSH32 0x4F6E6C79206F776E65722063616E2063616C6C20746869732066756E6374696F PUSH1 0x44 DUP3 ADD MSTORE PUSH1 0x37 PUSH1 0xF9 SHL PUSH1 0x64 DUP3 ADD MSTORE PUSH1 0x84 ADD PUSH2 0x578 JUMP JUMPDEST PUSH1 0x1 PUSH1 0x1 PUSH1 0xA0 SHL SUB DUP2 AND PUSH2 0x907 JUMPI PUSH1 0x40 MLOAD PUSH3 0x461BCD PUSH1 0xE5 SHL DUP2 MSTORE PUSH1 0x20 PUSH1 0x4 DUP3 ADD MSTORE PUSH1 0xF PUSH1 0x24 DUP3 ADD MSTORE PUSH32 0x496E76616C696420616464726573730000000000000000000000000000000000 PUSH1 0x44 DUP3 ADD MSTORE PUSH1 0x64 ADD PUSH2 0x578 JUMP JUMPDEST PUSH1 0x1 PUSH1 0x1 PUSH1 0xA0 SHL SUB DUP2 AND PUSH0 SWAP1 DUP2 MSTORE PUSH1 0x5 PUSH1 0x20 MSTORE PUSH1 0x40 SWAP1 KECCAK256 SLOAD PUSH1 0xFF AND ISZERO PUSH2 0x96F JUMPI PUSH1 0x40 MLOAD PUSH3 0x461BCD PUSH1 0xE5 SHL DUP2 MSTORE PUSH1 0x20 PUSH1 0x4 DUP3 ADD MSTORE PUSH1 0x12 PUSH1 0x24 DUP3 ADD MSTORE PUSH32 0x416C726561647920617574686F72697A65640000000000000000000000000000 PUSH1 0x44 DUP3 ADD MSTORE PUSH1 0x64 ADD PUSH2 0x578 JUMP JUMPDEST PUSH1 0x1 PUSH1 0x1 PUSH1 0xA0 SHL SUB DUP2 AND PUSH0 DUP2 DUP2 MSTORE PUSH1 0x5 PUSH1 0x20 MSTORE PUSH1 0x40 DUP1 DUP3 KECCAK256 DUP1 SLOAD PUSH1 0xFF NOT AND PUSH1 0x1 OR SWAP1 SSTORE MLOAD PUSH32 0x3154B4784B7A606A4E8594E5C2AADE1D60C2C2295F43C84E114D3C8BD30A3B08 SWAP2 SWAP1 LOG2 POP JUMP JUMPDEST PUSH1 0x1 PUSH1 0x1 PUSH1 0xA0 SHL SUB DUP2 AND PUSH0 SWAP1 DUP2 MSTORE PUSH1 0x6 PUSH1 0x20 SWAP1 DUP2 MSTORE PUSH1 0x40 SWAP2 DUP3 SWAP1 KECCAK256 DUP1 SLOAD DUP4 MLOAD DUP2 DUP5 MUL DUP2 ADD DUP5 ADD SWAP1 SWAP5 MSTORE DUP1 DUP5 MSTORE PUSH1 0x60 SWAP4 SWAP3 DUP4 ADD DUP3 DUP3 DUP1 ISZERO PUSH2 0xA17 JUMPI PUSH1 0x20 MUL DUP3 ADD SWAP2 SWAP1 PUSH0 MSTORE PUSH1 0x20 PUSH0 KECCAK256 SWAP1 JUMPDEST DUP2 SLOAD DUP2 MSTORE PUSH1 0x20 ADD SWAP1 PUSH1 0x1 ADD SWAP1 DUP1 DUP4 GT PUSH2 0xA03 JUMPI JUMPDEST POP POP POP POP POP SWAP1 POP SWAP2 SWAP1 POP JUMP JUMPDEST PUSH0 SLOAD PUSH1 0x1 PUSH1 0x1 PUSH1 0xA0 SHL SUB AND CALLER EQ PUSH2 0xA86 JUMPI PUSH1 0x40 MLOAD PUSH3 0x461BCD PUSH1 0xE5 SHL DUP2 MSTORE PUSH1 0x20 PUSH1 0x4 DUP3 ADD MSTORE PUSH1 0x21 PUSH1 0x24 DUP3 ADD MSTORE PUSH32 0x4F6E6C79206F776E65722063616E2063616C6C20746869732066756E6374696F PUSH1 0x44 DUP3 ADD MSTORE PUSH1 0x37 PUSH1 0xF9 SHL PUSH1 0x64 DUP3 ADD MSTORE PUSH1 0x84 ADD PUSH2 0x578 JUMP JUMPDEST PUSH1 0x1 PUSH1 0x1 PUSH1 0xA0 SHL SUB DUP2 AND PUSH0 SWAP1 DUP2 MSTORE PUSH1 0x5 PUSH1 0x20 MSTORE PUSH1 0x40 SWAP1 KECCAK256 SLOAD PUSH1 0xFF AND PUSH2 0xAED JUMPI PUSH1 0x40 MLOAD PUSH3 0x461BCD PUSH1 0xE5 SHL DUP2 MSTORE PUSH1 0x20 PUSH1 0x4 DUP3 ADD MSTORE PUSH1 0xE PUSH1 0x24 DUP3 ADD MSTORE PUSH32 0x4E6F7420617574686F72697A6564000000000000000000000000000000000000 PUSH1 0x44 DUP3 ADD MSTORE PUSH1 0x64 ADD PUSH2 0x578 JUMP JUMPDEST PUSH1 0x1 PUSH1 0x1 PUSH1 0xA0 SHL SUB DUP2 AND PUSH0 DUP2 DUP2 MSTORE PUSH1 0x5 PUSH1 0x20 MSTORE PUSH1 0x40 DUP1 DUP3 KECCAK256 DUP1 SLOAD PUSH1 0xFF NOT AND SWAP1 SSTORE MLOAD PUSH32 0x825A89863A561066B5720D4AA7EB8A4DB0ECC454D5FEBE7E9066AB8F9C1E8813 SWAP2 SWAP1 LOG2 POP JUMP JUMPDEST CALLER PUSH0 SWAP1 DUP2 MSTORE PUSH1 0x5 PUSH1 0x20 MSTORE PUSH1 0x40 DUP2 KECCAK256 SLOAD PUSH1 0xFF AND PUSH2 0xB93 JUMPI PUSH1 0x40 MLOAD PUSH3 0x461BCD PUSH1 0xE5 SHL DUP2 MSTORE PUSH1 0x20 PUSH1 0x4 DUP3 ADD MSTORE PUSH1 0x17 PUSH1 0x24 DUP3 ADD MSTORE PUSH32 0x4E6F7420617574686F72697A65642076616C7561746F72000000000000000000 PUSH1 0x44 DUP3 ADD MSTORE PUSH1 0x64 ADD PUSH2 0x578 JUMP JUMPDEST PUSH0 DUP5 DUP2 MSTORE PUSH1 0x3 PUSH1 0x20 MSTORE PUSH1 0x40 SWAP1 KECCAK256 PUSH1 0x2 ADD SLOAD PUSH13 0x1000000000000000000000000 SWAP1 DIV PUSH1 0xFF AND PUSH2 0xC03 JUMPI PUSH1 0x40 MLOAD PUSH3 0x461BCD PUSH1 0xE5 SHL DUP2 MSTORE PUSH1 0x20 PUSH1 0x4 DUP3 ADD MSTORE PUSH1 0x13 PUSH1 0x24 DUP3 ADD MSTORE PUSH32 0x50726F7065727479206E6F742061637469766500000000000000000000000000 PUSH1 0x44 DUP3 ADD MSTORE PUSH1 0x64 ADD PUSH2 0x578 JUMP JUMPDEST PUSH0 DUP4 PUSH8 0xFFFFFFFFFFFFFFFF AND GT PUSH2 0xC68 JUMPI PUSH1 0x40 MLOAD PUSH3 0x461BCD PUSH1 0xE5 SHL DUP2 MSTORE PUSH1 0x20 PUSH1 0x4 DUP3 ADD MSTORE PUSH1 0x23 PUSH1 0x24 DUP3 ADD MSTORE PUSH32 0x56616C756174696F6E206D7573742062652067726561746572207468616E207A PUSH1 0x44 DUP3 ADD MSTORE PUSH3 0x65726F PUSH1 0xE8 SHL PUSH1 0x64 DUP3 ADD MSTORE PUSH1 0x84 ADD PUSH2 0x578 JUMP JUMPDEST PUSH0 DUP3 PUSH4 0xFFFFFFFF AND GT DUP1 ISZERO PUSH2 0xC84 JUMPI POP PUSH1 0x64 DUP3 PUSH4 0xFFFFFFFF AND GT ISZERO JUMPDEST PUSH2 0xCD0 JUMPI PUSH1 0x40 MLOAD PUSH3 0x461BCD PUSH1 0xE5 SHL DUP2 MSTORE PUSH1 0x20 PUSH1 0x4 DUP3 ADD MSTORE PUSH1 0x18 PUSH1 0x24 DUP3 ADD MSTORE PUSH32 0x496E76616C696420636F6E666964656E63652073636F72650000000000000000 PUSH1 0x44 DUP3 ADD MSTORE PUSH1 0x64 ADD PUSH2 0x578 JUMP JUMPDEST PUSH1 0x2 DUP1 SLOAD SWAP1 PUSH0 PUSH2 0xCDF DUP4 PUSH2 0xFD8 JUMP JUMPDEST SWAP1 SWAP2 SSTORE POP POP PUSH1 0x2 DUP1 SLOAD PUSH1 0x40 DUP1 MLOAD PUSH1 0xC0 DUP2 ADD DUP3 MSTORE DUP3 DUP2 MSTORE PUSH1 0x20 DUP1 DUP3 ADD DUP10 DUP2 MSTORE CALLER DUP4 DUP6 ADD DUP2 DUP2 MSTORE PUSH8 0xFFFFFFFFFFFFFFFF DUP1 DUP13 AND PUSH1 0x60 DUP8 ADD SWAP1 DUP2 MSTORE PUSH4 0xFFFFFFFF DUP1 DUP14 AND PUSH1 0x80 DUP10 ADD SWAP1 DUP2 MSTORE TIMESTAMP PUSH1 0xA0 DUP11 ADD SWAP1 DUP2 MSTORE PUSH0 DUP13 DUP2 MSTORE PUSH1 0x4 DUP11 MSTORE DUP12 DUP2 KECCAK256 SWAP11 MLOAD DUP12 SSTORE SWAP8 MLOAD PUSH1 0x1 DUP1 DUP13 ADD SWAP2 SWAP1 SWAP2 SSTORE SWAP6 MLOAD SWAP13 DUP11 ADD DUP1 SLOAD SWAP5 MLOAD SWAP3 MLOAD SWAP1 SWAP4 AND PUSH1 0x1 PUSH1 0xE0 SHL MUL PUSH28 0xFFFFFFFFFFFFFFFFFFFFFFFFFFFFFFFFFFFFFFFFFFFFFFFFFFFFFFFF SWAP3 SWAP1 SWAP6 AND PUSH1 0x1 PUSH1 0xA0 SHL MUL PUSH32 0xFFFFFFFF00000000000000000000000000000000000000000000000000000000 SWAP1 SWAP5 AND PUSH1 0x1 PUSH1 0x1 PUSH1 0xA0 SHL SUB SWAP14 SWAP1 SWAP14 AND SWAP13 SWAP1 SWAP13 OR SWAP3 SWAP1 SWAP3 OR SWAP2 SWAP1 SWAP2 AND SWAP2 SWAP1 SWAP2 OR SWAP1 SSTORE SWAP7 MLOAD PUSH1 0x3 SWAP1 SWAP5 ADD SWAP4 SWAP1 SWAP4 SSTORE DUP10 DUP2 MSTORE PUSH1 0x7 DUP3 MSTORE DUP4 DUP2 KECCAK256 DUP1 SLOAD SWAP7 DUP8 ADD DUP2 SSTORE DUP2 MSTORE SWAP1 DUP2 KECCAK256 SWAP1 SWAP5 ADD DUP4 SWAP1 SSTORE SWAP1 MLOAD SWAP2 SWAP3 SWAP1 SWAP2 DUP8 SWAP2 DUP5 SWAP2 PUSH32 0xD5353FA3EF94EDCE12F242792BA11C2031E4C4609965B830A9D193437B63F342 SWAP2 SWAP1 LOG4 SWAP5 SWAP4 POP POP POP POP JUMP JUMPDEST PUSH0 PUSH1 0x20 DUP3 DUP5 SUB SLT ISZERO PUSH2 0xE32 JUMPI PUSH0 DUP1 REVERT JUMPDEST POP CALLDATALOAD SWAP2 SWAP1 POP JUMP JUMPDEST PUSH0 PUSH1 0x20 DUP3 DUP5 SUB SLT ISZERO PUSH2 0xE49 JUMPI PUSH0 DUP1 REVERT JUMPDEST DUP2 CALLDATALOAD PUSH1 0x1 PUSH1 0x1 PUSH1 0xA0 SHL SUB DUP2 AND DUP2 EQ PUSH2 0xE5F JUMPI PUSH0 DUP1 REVERT JUMPDEST SWAP4 SWAP3 POP POP POP JUMP JUMPDEST DUP1 CALLDATALOAD PUSH4 0xFFFFFFFF DUP2 AND DUP2 EQ PUSH2 0xE79 JUMPI PUSH0 DUP1 REVERT JUMPDEST SWAP2 SWAP1 POP JUMP JUMPDEST PUSH0 DUP1 PUSH0 DUP1 PUSH0 DUP1 PUSH1 0xC0 DUP8 DUP10 SUB SLT ISZERO PUSH2 0xE93 JUMPI PUSH0 DUP1 REVERT JUMPDEST PUSH2 0xE9C DUP8 PUSH2 0xE66 JUMP JUMPDEST SWAP6 POP PUSH2 0xEAA PUSH1 0x20 DUP9 ADD PUSH2 0xE66 JUMP JUMPDEST SWAP5 POP PUSH2 0xEB8 PUSH1 0x40 DUP9 ADD PUSH2 0xE66 JUMP JUMPDEST SWAP4 POP PUSH2 0xEC6 PUSH1 0x60 DUP9 ADD PUSH2 0xE66 JUMP JUMPDEST SWAP3 POP PUSH2 0xED4 PUSH1 0x80 DUP9 ADD PUSH2 0xE66 JUMP JUMPDEST SWAP2 POP PUSH2 0xEE2 PUSH1 0xA0 DUP9 ADD PUSH2 0xE66 JUMP JUMPDEST SWAP1 POP SWAP3 SWAP6 POP SWAP3 SWAP6 POP SWAP3 SWAP6 JUMP JUMPDEST PUSH1 0x20 DUP1 DUP3 MSTORE DUP3 MLOAD DUP3 DUP3 ADD DUP2 SWAP1 MSTORE PUSH0 SWAP2 SWAP1 DUP5 DUP3 ADD SWAP1 PUSH1 0x40 DUP6 ADD SWAP1 DUP5 JUMPDEST DUP2 DUP2 LT ISZERO PUSH2 0xF25 JUMPI DUP4 MLOAD DUP4 MSTORE SWAP3 DUP5 ADD SWAP3 SWAP2 DUP5 ADD SWAP2 PUSH1 0x1 ADD PUSH2 0xF09 JUMP JUMPDEST POP SWAP1 SWAP7 SWAP6 POP POP POP POP POP POP JUMP JUMPDEST PUSH0 DUP1 PUSH0 PUSH1 0x60 DUP5 DUP7 SUB SLT ISZERO PUSH2 0xF43 JUMPI PUSH0 DUP1 REVERT JUMPDEST DUP4 CALLDATALOAD SWAP3 POP PUSH1 0x20 DUP5 ADD CALLDATALOAD PUSH8 0xFFFFFFFFFFFFFFFF DUP2 AND DUP2 EQ PUSH2 0xF61 JUMPI PUSH0 DUP1 REVERT JUMPDEST SWAP2 POP PUSH2 0xF6F PUSH1 0x40 DUP6 ADD PUSH2 0xE66 JUMP JUMPDEST SWAP1 POP SWAP3 POP SWAP3 POP SWAP3 JUMP JUMPDEST PUSH4 0x4E487B71 PUSH1 0xE0 SHL PUSH0 MSTORE PUSH1 0x32 PUSH1 0x4 MSTORE PUSH1 0x24 PUSH0 REVERT JUMPDEST PUSH4 0x4E487B71 PUSH1 0xE0 SHL PUSH0 MSTORE PUSH1 0x11 PUSH1 0x4 MSTORE PUSH1 0x24 PUSH0 REVERT JUMPDEST DUP1 DUP3 ADD DUP1 DUP3 GT ISZERO PUSH2 0xFB3 JUMPI PUSH2 0xFB3 PUSH2 0xF8C JUMP JUMPDEST SWAP3 SWAP2 POP POP JUMP JUMPDEST PUSH0 DUP3 PUSH2 0xFD3 JUMPI PUSH4 0x4E487B71 PUSH1 0xE0 SHL PUSH0 MSTORE PUSH1 0x12 PUSH1 0x4 MSTORE PUSH1 0x24 PUSH0 REVERT JUMPDEST POP DIV SWAP1 JUMP JUMPDEST PUSH0 PUSH1 0x1 DUP3 ADD PUSH2 0xFE9 JUMPI PUSH2 0xFE9 PUSH2 0xF8C JUMP JUMPDEST POP PUSH1 0x1 ADD SWAP1 JUMP INVALID LOG2 PUSH5 0x6970667358 0x22 SLT KECCAK256 PUSH17 0xDA35C72F6D3BC3DC5268FCA85724105A76 0xBE 0xD4 MSIZE PUSH4 0x3DE0EADD 0x25 0xCC 0x22 EXP 0xDD 0x4C PUSH5 0x736F6C6343 STOP ADDMOD XOR STOP CALLER "},"gasEstimates":{"creation":{"codeDepositCost":"826800","executionCost":"35108","totalCost":"861908"},"external":{"authorizeValuator(address)":"30148","authorizedValuators(address)":"2516","calculateAverageValuation(uint256)":"infinite","getOwnerProperties(address)":"infinite","getPropertyCount()":"2336","getValuationCount()":"2326","owner()":"2358","properties(uint256)":"7087","registerProperty(uint32,uint32,uint32,uint32,uint32,uint32)":"infinite","revokeValuator(address)":"30081","submitValuation(uint256,uint64,uint32)":"170713","valuations(uint256)":"9065"}},"methodIdentifiers":{"authorizeValuator(address)":"ca47a9f4","authorizedValuators(address)":"66023f6c","calculateAverageValuation(uint256)":"29c041e5","getOwnerProperties(address)":"cb644897","getPropertyCount()":"7326b901","getValuationCount()":"506520e8","owner()":"8da5cb5b","properties(uint256)":"f7b10808","registerProperty(uint32,uint32,uint32,uint32,uint32,uint32)":"74c5976c","revokeValuator(address)":"e73b171f","submitValuation(uint256,uint64,uint32)":"fcc0d959","valuations(uint256)":"5d03d83e"}},"storageLayout":{"storage":[{"astId":4,"contract":"contracts/ConfidentialPropertyValuation.sol:ConfidentialPropertyValuation","label":"owner","offset":0,"slot":"0","type":"t_address"},{"astId":6,"contract":"contracts/ConfidentialPropertyValuation.sol:ConfidentialPropertyValuation","label":"propertyCounter","offset":0,"slot":"1","type":"t_uint256"},{"astId":8,"contract":"contracts/ConfidentialPropertyValuation.sol:ConfidentialPropertyValuation","label":"valuationCounter","offset":0,"slot":"2","type":"t_uint256"},{"astId":45,"contract":"contracts/ConfidentialPropertyValuation.sol:ConfidentialPropertyValuation","label":"properties","offset":0,"slot":"3","type":"t_mapping(t_uint256,t_struct(Property)27_storage)"},{"astId":50,"contract":"contracts/ConfidentialPropertyValuation.sol:ConfidentialPropertyValuation","label":"valuations","offset":0,"slot":"4","type":"t_mapping(t_uint256,t_struct(Valuation)40_storage)"},{"astId":54,"contract":"contracts/ConfidentialPropertyValuation.sol:ConfidentialPropertyValuation","label":"authorizedValuators","offset":0,"slot":"5","type":"t_mapping(t_address,t_bool)"},{"astId":59,"contract":"contracts/ConfidentialPropertyValuation.sol:ConfidentialPropertyValuation","label":"ownerProperties","offset":0,"slot":"6","type":"t_mapping(t_address,t_array(t_uint256)dyn_storage)"},{"astId":64,"contract":"contracts/ConfidentialPropertyValuation.sol:ConfidentialPropertyValuation","label":"propertyValuations","offset":0,"slot":"7","type":"t_mapping(t_uint256,t_array(t_uint256)dyn_storage)"}],"types":{"t_address":{"encoding":"inplace","label":"address","numberOfBytes":"20"},"t_array(t_uint256)dyn_storage":{"base":"t_uint256","encoding":"dynamic_array","label":"uint256[]","numberOfBytes":"32"},"t_bool":{"encoding":"inplace","label":"bool","numberOfBytes":"1"},"t_mapping(t_address,t_array(t_uint256)dyn_storage)":{"encoding":"mapping","key":"t_address","label":"mapping(address => uint256[])","numberOfBytes":"32","value":"t_array(t_uint256)dyn_storage"},"t_mapping(t_address,t_bool)":{"encoding":"mapping","key":"t_address","label":"mapping(address => bool)","numberOfBytes":"32","value":"t_bool"},"t_mapping(t_uint256,t_array(t_uint256)dyn_storage)":{"encoding":"mapping","key":"t_uint256","label":"mapping(uint256 => uint256[])","numberOfBytes":"32","value":"t_array(t_uint256)dyn_storage"},"t_mapping(t_uint256,t_struct(Property)27_storage)":{"encoding":"mapping","key":"t_uint256","label":"mapping(uint256 => struct ConfidentialPropertyValuation.Property)","numberOfBytes":"32","value":"t_struct(Property)27_storage"},"t_mapping(t_uint256,t_struct(Valuation)40_storage)":{"encoding":"mapping","key":"t_uint256","label":"mapping(uint256 => struct ConfidentialPropertyValuation.Valuation)","numberOfBytes":"32","value":"t_struct(Valuation)40_storage"},"t_struct(Property)27_storage":{"encoding":"inplace","label":"struct ConfidentialPropertyValuation.Property","members":[{"astId":10,"contract":"contracts/ConfidentialPropertyValuation.sol:ConfidentialPropertyValuation","label":"id","offset":0,"slot":"0","type":"t_uint256"},{"astId":12,"contract":"contracts/ConfidentialPropertyValuation.sol:ConfidentialPropertyValuation","label":"owner","offset":0,"slot":"1","type":"t_address"},{"astId":14,"contract":"contracts/ConfidentialPropertyValuation.sol:ConfidentialPropertyValuation","label":"area","offset":20,"slot":"1","type":"t_uint32"},{"astId":16,"contract":"contracts/ConfidentialPropertyValuation.sol:ConfidentialPropertyValuation","label":"bedrooms","offset":24,"slot":"1","type":"t_uint32"},{"astId":18,"contract":"contracts/ConfidentialPropertyValuation.sol:ConfidentialPropertyValuation","label":"bathrooms","offset":28,"slot":"1","type":"t_uint32"},{"astId":20,"contract":"contracts/ConfidentialPropertyValuation.sol:ConfidentialPropertyValuation","label":"yearBuilt","offset":0,"slot":"2","type":"t_uint32"},{"astId":22,"contract":"contracts/ConfidentialPropertyValuation.sol:ConfidentialPropertyValuation","label":"floorLevel","offset":4,"slot":"2","type":"t_uint32"},{"astId":24,"contract":"contracts/ConfidentialPropertyValuation.sol:ConfidentialPropertyValuation","label":"locationScore","offset":8,"slot":"2","type":"t_uint32"},{"astId":26,"contract":"contracts/ConfidentialPropertyValuation.sol:ConfidentialPropertyValuation","label":"active","offset":12,"slot":"2","type":"t_bool"}],"numberOfBytes":"96"},"t_struct(Valuation)40_storage":{"encoding":"inplace","label":"struct ConfidentialPropertyValuation.Valuation","members":[{"astId":29,"contract":"contracts/ConfidentialPropertyValuation.sol:ConfidentialPropertyValuation","label":"id","offset":0,"slot":"0","type":"t_uint256"},{"astId":31,"contract":"contracts/ConfidentialPropertyValuation.sol:ConfidentialPropertyValuation","label":"propertyId","offset":0,"slot":"1","type":"t_uint256"},{"astId":33,"contract":"contracts/ConfidentialPropertyValuation.sol:ConfidentialPropertyValuation","label":"valuator","offset":0,"slot":"2","type":"t_address"},{"astId":35,"contract":"contracts/ConfidentialPropertyValuation.sol:ConfidentialPropertyValuation","label":"estimatedValue","offset":20,"slot":"2","type":"t_uint64"},{"astId":37,"contract":"contracts/ConfidentialPropertyValuation.sol:ConfidentialPropertyValuation","label":"confidenceScore","offset":28,"slot":"2","type":"t_uint32"},{"astId":39,"contract":"contracts/ConfidentialPropertyValuation.sol:ConfidentialPropertyValuation","label":"timestamp","offset":0,"slot":"3","type":"t_uint256"}],"numberOfBytes":"128"},"t_uint256":{"encoding":"inplace","label":"uint256","numberOfBytes":"32"},"t_uint32":{"encoding":"inplace","label":"uint32","numberOfBytes":"4"},"t_uint64":{"encoding":"inplace","label":"uint64","numberOfBytes":"8"}}},"userdoc":{"kind":"user","methods":{"authorizeValuator(address)":{"notice":"Authorize a valuator"},"calculateAverageValuation(uint256)":{"notice":"Calculate average valuation for a property"},"getOwnerProperties(address)":{"notice":"Get properties owned by an address"},"getPropertyCount()":{"notice":"Get total number of properties"},"getValuationCount()":{"notice":"Get total number of valuations"},"registerProperty(uint32,uint32,uint32,uint32,uint32,uint32)":{"notice":"Register a new property"},"revokeValuator(address)":{"notice":"Revoke a valuator's authorization"},"submitValuation(uint256,uint64,uint32)":{"notice":"Submit a valuation for a property"}},"notice":"Privacy-preserving real estate assessment platform","version":1}}}}