{
  "_format": "hh-sol-artifact-1",
  "contractName": "ConfidentialPropertyValuation",
  "sourceName": "contracts/ConfidentialPropertyValuation.sol",
  "abi": [
    {
      "inputs": [],
      "stateMutability": "nonpayable",
      "type": "constructor"
    },
    {
      "anonymous": false,
      "inputs": [
        {
          "indexed": true,
          "internalType": "uint256",
          "name": "propertyId",
          "type": "uint256"
        },
        {
          "indexed": true,
          "internalType": "address",
          "name": "owner",
          "type": "address"
        }
      ],
      "name": "PropertyRegistered",
      "type": "event"
    },
    {
      "anonymous": false,
      "inputs": [
        {
          "indexed": true,
          "internalType": "uint256",
          "name": "valuationId",
          "type": "uint256"
        },
        {
          "indexed": true,
          "internalType": "uint256",
          "name": "propertyId",
          "type": "uint256"
        },
        {
          "indexed": true,
          "internalType": "address",
          "name": "valuator",
          "type": "address"
        }
      ],
      "name": "ValuationSubmitted",
      "type": "event"
    },
    {
      "anonymous": false,
      "inputs": [
        {
          "indexed": true,
          "internalType": "address",
          "name": "valuator",
          "type": "address"
        }
      ],
      "name": "ValuatorAuthorized",
      "type": "event"
    },
    {
      "anonymous": false,
      "inputs": [
        {
          "indexed": true,
          "internalType": "address",
          "name": "valuator",
          "type": "address"
        }
      ],
      "name": "ValuatorRevoked",
      "type": "event"
    },
    {
      "inputs": [
        {
          "internalType": "address",
          "name": "valuator",
          "type": "address"
        }
      ],
      "name": "authorizeValuator",
      "outputs": [],
      "stateMutability": "nonpayable",
      "type": "function"
    },
    {
      "inputs": [
        {
          "internalType": "address",
          "name": "",
          "type": "address"
        }
      ],
      "name": "authorizedValuators",
      "outputs": [
        {
          "internalType": "bool",
          "name": "",
          "type": "bool"
        }
      ],
      "stateMutability": "view",
      "type": "function"
    },
    {
      "inputs": [
        {
          "internalType": "uint256",
          "name": "propertyId",
          "type": "uint256"
        }
      ],
      "name": "calculateAverageValuation",
      "outputs": [
        {
          "internalType": "bool",
          "name": "hasRevealed",
          "type": "bool"
        },
        {
          "internalType": "uint64",
          "name": "averageValue",
          "type": "uint64"
        },
        {
          "internalType": "uint32",
          "name": "averageConfidence",
          "type": "uint32"
        },
        {
          "internalType": "uint256",
          "name": "valuationCount",
          "type": "uint256"
        }
      ],
      "stateMutability": "view",
      "type": "function"
    },
    {
      "inputs": [
        {
          "internalType": "address",
          "name": "propertyOwner",
          "type": "address"
        }
      ],
      "name": "getOwnerProperties",
      "outputs": [
        {
          "internalType": "uint256[]",
          "name": "",
          "type": "uint256[]"
        }
      ],
      "stateMutability": "view",
      "type": "function"
    },
    {
      "inputs": [],
      "name": "getPropertyCount",
      "outputs": [
        {
          "internalType": "uint256",
          "name": "",
          "type": "uint256"
        }
      ],
      "stateMutability": "view",
      "type": "function"
    },
    {
      "inputs": [],
      "name": "getValuationCount",
      "outputs": [
        {
          "internalType": "uint256",
          "name": "",
          "type": "uint256"
        }
      ],
      "stateMutability": "view",
      "type": "function"
    },
    {
      "inputs": [],
      "name": "owner",
      "outputs": [
        {
          "internalType": "address",
          "name": "",
          "type": "address"
        }
      ],
      "stateMutability": "view",
      "type": "function"
    },
    {
      "inputs": [
        {
          "internalType": "uint256",
          "name": "",
          "type": "uint256"
        }
      ],
      "name": "properties",
      "outputs": [
        {
          "internalType": "uint256",
          "name": "id",
          "type": "uint256"
        },
        {
          "internalType": "address",
          "name": "owner",
          "type": "address"
        },
        {
          "internalType": "uint32",
          "name": "area",
          "type": "uint32"
        },
        {
          "internalType": "uint32",
          "name": "bedrooms",
          "type": "uint32"
        },
        {
          "internalType": "uint32",
          "name": "bathrooms",
          "type": "uint32"
        },
        {
          "internalType": "uint32",
          "name": "yearBuilt",
          "type": "uint32"
        },
        {
          "internalType": "uint32",
          "name": "floorLevel",
          "type": "uint32"
        },
        {
          "internalType": "uint32",
          "name": "locationScore",
          "type": "uint32"
        },
        {
          "internalType": "bool",
          "name": "active",
          "type": "bool"
        }
      ],
      "stateMutability": "view",
      "type": "function"
    },
    {
      "inputs": [
        {
          "internalType": "uint32",
          "name": "_area",
          "type": "uint32"
        },
        {
          "internalType": "uint32",
          "name": "_bedrooms",
          "type": "uint32"
        },
        {
          "internalType": "uint32",
          "name": "_bathrooms",
          "type": "uint32"
        },
        {
          "internalType": "uint32",
          "name": "_yearBuilt",
          "type": "uint32"
        },
        {
          "internalType": "uint32",
          "name": "_floorLevel",
          "type": "uint32"
        },
        {
          "internalType": "uint32",
          "name": "_locationScore",
          "type": "uint32"
        }
      ],
      "name": "registerProperty",
      "outputs": [
        {
          "internalType": "uint256",
          "name": "",
          "type": "uint256"
        }
      ],
      "stateMutability": "nonpayable",
      "type": "function"
    },
    {
      "inputs": [
        {
          "internalType": "address",
          "name": "valuator",
          "type": "address"
        }
      ],
      "name": "revokeValuator",
      "outputs": [],
      "stateMutability": "nonpayable",
      "type": "function"
    },
    {
      "inputs": [
        {
          "internalType": "uint256",
          "name": "propertyId",
          "type": "uint256"
        },
        {
          "internalType": "uint64",
          "name": "_estimatedValue",
          "type": "uint64"
        },
        {
          "internalType": "uint32",
          "name": "_confidenceScore",
          "type": "uint32"
        }
      ],
      "name": "submitValuation",
      "outputs": [
        {
          "internalType": "uint256",
          "name": "",
          "type": "uint256"
        }
      ],
      "stateMutability": "nonpayable",
      "type": "function"
    },
    {
      "inputs": [
        {
          "internalType": "uint256",
          "name": "",
          "type": "uint256"
        }
      ],
      "name": "valuations",
      "outputs": [
        {
          "internalType": "uint256",
          "name": "id",
          "type": "uint256"
        },
        {
          "internalType": "uint256",
          "name": "propertyId",
          "type": "uint256"
        },
        {
          "internalType": "address",
          "name": "valuator",
          "type": "address"
        },
        {
          "internalType": "uint64",
          "name": "estimatedValue",
          "type": "uint64"
        },
        {
          "internalType": "uint32",
          "name": "confidenceScore",
          "type": "uint32"
        },
        {
          "internalType": "uint256",
          "name": "timestamp",
          "type": "uint256"
        }
      ],
      "stateMutability": "view",
      "type": "function"
    }
  ],
  "bytecode": "0x608060405234801561000f575f80fd5b505f80546001600160a01b031916331781556001819055600255611026806100365f395ff3fe608060405234801561000f575f80fd5b50600436106100cf575f3560e01c80638da5cb5b1161007d578063e73b171f11610058578063e73b171f14610289578063f7b108081461029c578063fcc0d95914610399575f80fd5b80638da5cb5b1461022a578063ca47a9f414610254578063cb64489714610269575f80fd5b806366023f6c116100ad57806366023f6c146101dd5780637326b9011461020f57806374c5976c14610217575f80fd5b806329c041e5146100d3578063506520e8146101215780635d03d83e14610133575b5f80fd5b6100e66100e1366004610e22565b6103ac565b60408051941515855267ffffffffffffffff909316602085015263ffffffff9091169183019190915260608201526080015b60405180910390f35b6002545b604051908152602001610118565b610193610141366004610e22565b60046020525f90815260409020805460018201546002830154600390930154919290916001600160a01b03821691600160a01b810467ffffffffffffffff1691600160e01b90910463ffffffff169086565b6040805196875260208701959095526001600160a01b039093169385019390935267ffffffffffffffff16606084015263ffffffff909116608083015260a082015260c001610118565b6101ff6101eb366004610e39565b60056020525f908152604090205460ff1681565b6040519015158152602001610118565b600154610125565b610125610225366004610e7e565b610526565b5f5461023c906001600160a01b031681565b6040516001600160a01b039091168152602001610118565b610267610262366004610e39565b61084e565b005b61027c610277366004610e39565b6109ba565b6040516101189190610eee565b610267610297366004610e39565b610a23565b61033e6102aa366004610e22565b60036020525f908152604090208054600182015460029092015490916001600160a01b0381169163ffffffff600160a01b830481169278010000000000000000000000000000000000000000000000008104821692600160e01b909104821691818116916401000000008104821691680100000000000000008204169060ff6c010000000000000000000000009091041689565b60408051998a526001600160a01b0390981660208a015263ffffffff9687169789019790975293851660608801529184166080870152831660a0860152821660c08501521660e0830152151561010082015261012001610118565b6101256103a7366004610f31565b610b35565b5f805f805f60075f8781526020019081526020015f2080548060200260200160405190810160405280929190818152602001828054801561040a57602002820191905f5260205f20905b8154815260200190600101908083116103f6575b5050505050905080519150815f0361042e575f805f8094509450945094505061051f565b5f805f5b848110156104fe575f60045f86848151811061045057610450610f78565b60209081029190910181015182528181019290925260409081015f20815160c0810183528154815260018201549381019390935260028101546001600160a01b03811692840192909252600160a01b820467ffffffffffffffff1660608401819052600160e01b90920463ffffffff1660808401526003015460a08301529091506104db9085610fa0565b9350806080015163ffffffff16836104f39190610fa0565b925050600101610432565b506105098483610fb9565b95506105158482610fb9565b9450600196505050505b9193509193565b5f808763ffffffff16116105815760405162461bcd60e51b815260206004820152601e60248201527f41726561206d7573742062652067726561746572207468616e207a65726f000060448201526064015b60405180910390fd5b5f8263ffffffff1611801561059d575060648263ffffffff1611155b6105e95760405162461bcd60e51b815260206004820152601660248201527f496e76616c6964206c6f636174696f6e2073636f7265000000000000000000006044820152606401610578565b60018054905f6105f883610fd8565b91905055505f6001549050604051806101200160405280828152602001336001600160a01b031681526020018963ffffffff1681526020018863ffffffff1681526020018763ffffffff1681526020018663ffffffff1681526020018563ffffffff1681526020018463ffffffff1681526020016001151581525060035f8381526020019081526020015f205f820151815f01556020820151816001015f6101000a8154816001600160a01b0302191690836001600160a01b0316021790555060408201518160010160146101000a81548163ffffffff021916908363ffffffff16021790555060608201518160010160186101000a81548163ffffffff021916908363ffffffff160217905550608082015181600101601c6101000a81548163ffffffff021916908363ffffffff16021790555060a0820151816002015f6101000a81548163ffffffff021916908363ffffffff16021790555060c08201518160020160046101000a81548163ffffffff021916908363ffffffff16021790555060e08201518160020160086101000a81548163ffffffff021916908363ffffffff16021790555061010082015181600201600c6101000a81548160ff02191690831515021790555090505060065f336001600160a01b03166001600160a01b031681526020019081526020015f2081908060018154018082558091505060019003905f5260205f20015f9091909190915055336001600160a01b0316817ff16e2a0ca5373d3b3c5e53640bf2953ea25184f229ba20d421b5fc6a635e394560405160405180910390a3979650505050505050565b5f546001600160a01b031633146108b15760405162461bcd60e51b815260206004820152602160248201527f4f6e6c79206f776e65722063616e2063616c6c20746869732066756e6374696f6044820152603760f91b6064820152608401610578565b6001600160a01b0381166109075760405162461bcd60e51b815260206004820152600f60248201527f496e76616c6964206164647265737300000000000000000000000000000000006044820152606401610578565b6001600160a01b0381165f9081526005602052604090205460ff161561096f5760405162461bcd60e51b815260206004820152601260248201527f416c726561647920617574686f72697a656400000000000000000000000000006044820152606401610578565b6001600160a01b0381165f81815260056020526040808220805460ff19166001179055517f3154b4784b7a606a4e8594e5c2aade1d60c2c2295f43c84e114d3c8bd30a3b089190a250565b6001600160a01b0381165f90815260066020908152604091829020805483518184028101840190945280845260609392830182828015610a1757602002820191905f5260205f20905b815481526020019060010190808311610a03575b50505050509050919050565b5f546001600160a01b03163314610a865760405162461bcd60e51b815260206004820152602160248201527f4f6e6c79206f776e65722063616e2063616c6c20746869732066756e6374696f6044820152603760f91b6064820152608401610578565b6001600160a01b0381165f9081526005602052604090205460ff16610aed5760405162461bcd60e51b815260206004820152600e60248201527f4e6f7420617574686f72697a65640000000000000000000000000000000000006044820152606401610578565b6001600160a01b0381165f81815260056020526040808220805460ff19169055517f825a89863a561066b5720d4aa7eb8a4db0ecc454d5febe7e9066ab8f9c1e88139190a250565b335f9081526005602052604081205460ff16610b935760405162461bcd60e51b815260206004820152601760248201527f4e6f7420617574686f72697a65642076616c7561746f720000000000000000006044820152606401610578565b5f848152600360205260409020600201546c01000000000000000000000000900460ff16610c035760405162461bcd60e51b815260206004820152601360248201527f50726f7065727479206e6f7420616374697665000000000000000000000000006044820152606401610578565b5f8367ffffffffffffffff1611610c685760405162461bcd60e51b815260206004820152602360248201527f56616c756174696f6e206d7573742062652067726561746572207468616e207a60448201526265726f60e81b6064820152608401610578565b5f8263ffffffff16118015610c84575060648263ffffffff1611155b610cd05760405162461bcd60e51b815260206004820152601860248201527f496e76616c696420636f6e666964656e63652073636f726500000000000000006044820152606401610578565b60028054905f610cdf83610fd8565b9091555050600280546040805160c08101825282815260208082018981523383850181815267ffffffffffffffff808c166060870190815263ffffffff808d16608089019081524260a08a019081525f8c815260048a528b81209a518b5597516001808c019190915595519c8a01805494519251909316600160e01b027bffffffffffffffffffffffffffffffffffffffffffffffffffffffff92909516600160a01b027fffffffff000000000000000000000000000000000000000000000000000000009094166001600160a01b039d909d169c909c179290921791909116919091179055965160039094019390935589815260078252838120805496870181558152908120909401839055905191929091879184917fd5353fa3ef94edce12f242792ba11c2031e4c4609965b830a9d193437b63f3429190a4949350505050565b5f60208284031215610e32575f80fd5b5035919050565b5f60208284031215610e49575f80fd5b81356001600160a01b0381168114610e5f575f80fd5b9392505050565b803563ffffffff81168114610e79575f80fd5b919050565b5f805f805f8060c08789031215610e93575f80fd5b610e9c87610e66565b9550610eaa60208801610e66565b9450610eb860408801610e66565b9350610ec660608801610e66565b9250610ed460808801610e66565b9150610ee260a08801610e66565b90509295509295509295565b602080825282518282018190525f9190848201906040850190845b81811015610f2557835183529284019291840191600101610f09565b50909695505050505050565b5f805f60608486031215610f43575f80fd5b83359250602084013567ffffffffffffffff81168114610f61575f80fd5b9150610f6f60408501610e66565b90509250925092565b634e487b7160e01b5f52603260045260245ffd5b634e487b7160e01b5f52601160045260245ffd5b80820180821115610fb357610fb3610f8c565b92915050565b5f82610fd357634e487b7160e01b5f52601260045260245ffd5b500490565b5f60018201610fe957610fe9610f8c565b506001019056fea264697066735822122070da35c72f6d3bc3dc5268fca85724105a76bed459633de0eadd25cc220add4c64736f6c63430008180033",
  "linkReferences": {},
  "deployedLinkReferences": {}
}